:100000000C944F010C9477010C9477010C947701B8
:100010000C9477010C9477010C9477010C94770180
:100020000C9477010C9477010C9477010C94770170
:100030000C9477010C9477010C9477010C94770160
:100040000C9413150C9477010C94F3100C943A1142
:100050000C9477010C9477010C9477010C94770140
:100060000C9496090C9477010001020304050A0B15
:100070000C0D0E0F111213141516CF01D501DB0153
:10008000E301EC01F601FF0106020E0215021C025B
:100090002402504120506F77657209203D2025537E
:1000A0000D0A00435243204C656E67746809203D79
:1000B0002025530D0A004D6F64656C0909203D2011
:1000C00025530D0A00446174612052617465092052
:1000D0003D2025530D0A0044594E50442F464541BA
:1000E0005455524500434F4E4649470052465F53D0
:1000F000455455500052465F434800454E5F5258A4
:100100004144445200454E5F41410052585F5057B0
:100110005F50302D360054585F41444452005258CD
:100120005F414444525F50322D350052585F414484
:1001300044525F50302D31000D0A002530327800D6
:10014000203078002553092563203D000D0A00204A
:10015000307825303278002553092563203D004F43
:100160004253455256455F54583D253032783A2027
:10017000504F4C535F434E543D2578204152435FCE
:10018000434E543D25780D0A0053544154555309AC
:1001900009203D203078253032782052585F445273
:1001A0003D25782054585F44533D2578204D4158D3
:1001B0005F52543D25782052585F505F4E4F3D2589
:1001C000782054585F46554C4C3D25780D0A003137
:1001D0004D42505300324D425053003235304B4265
:1001E0005053006E524632344C3031006E5246321B
:1001F000344C30312B0044697361626C65640038A3
:100200002062697473003136206269747300504152
:100210005F4D494E0050415F4C4F570050415F4881
:100220004947480050415F4D4158000000000024FC
:100230000027002A0000000000250028002B0000F5
:100240000000002300260029000404040404040420
:100250000402020202020203030303030301020475
:100260000810204080010204081020010204081038
:100270002000000007000201000003040600000047
:10028000000000000000F8017F0B600C6B0C760C86
:10029000850C900C9B0CB20CF10C7712D912112426
:1002A0001FBECFEFD8E0DEBFCDBF11E0A0E0B1E0D0
:1002B000EAEFF0E302C005900D92A63FB107D9F72F
:1002C00013E0A6EFB1E001C01D92AB3AB107E1F730
:1002D00012E0CEE9D2E004C02297FE010E94771816
:1002E000C638D107C9F70E9400150C947B180C94EE
:1002F0000000EF92FF920F93DF93CF93CDB7DEB75D
:1003000060970FB6F894DEBF0FBECDBFA82F0023B5
:1003100009F461C07E010894E11CF11C88E0F7013A
:1003200011928A95E9F729833A834B835C836D8325
:100330007E83AF83988780E2801BE82FFF27E7FD4D
:10034000F09549815A816B817C81181684F0198659
:100350001A861B861C86882799278E1B9F0B04C034
:10036000440F551F661F771F8A95D2F728C0202F8C
:10037000332727FD3095DB01CA01022E04C0880F08
:10038000991FAA1FBB1F0A94D2F789879A87AB8748
:10039000BC8704C07695679557954795EA95D2F73F
:1003A0008D819E81AF81B88504C0880F991FAA1FD7
:1003B000BB1F2A95D2F7482B592B6A2B7B2B4D87D5
:1003C0005E876F87788B29853A854B855C856D853F
:1003D0007E85AF8598898A2F60960FB6F894DEBF28
:1003E0000FBECDBFCF91DF910F91FF90EF90089599
:1003F0000F9386EF91E060E040E020E000E00E9493
:10040000CD120F910895FC0189EA91E091838083D8
:1004100008950F931F93DC011296ED91FC911397B1
:1004200085E183831296ED91FC911397872F99278D
:1004300087FD9A9586831296ED91FC9113976783B9
:100440001296ED91FC911397852F992787FD9A9528
:1004500080871296ED91FC91139741871296ED914A
:10046000FC911397832F992787FD9A95828712967F
:10047000ED91FC91139723871296ED91FC911397C0
:10048000812F992787FD9A9584871296ED91FC918B
:1004900013970587ED91FC91119712966D917C91C0
:1004A00013970280F381E02DCD01099581E01F9122
:1004B0000F910895EF92FF920F931F937C01DC013F
:1004C0001296ED91FC91139786E183831296ED913C
:1004D000FC911397872F9927AA27BB278683D701DB
:1004E0001296ED91FC911397CB01BB2797FDB09528
:1004F000AB2F8783D7011296ED91FC911397BB2701
:1005000077FDBA95A72F962F852F8087D701129652
:10051000ED91FC91139741871296ED91FC91139701
:10052000832F9927AA27BB278287D7011296ED919F
:10053000FC911397C901BB2797FDB095AB2F83871B
:10054000D7011296ED91FC911397BB2737FDBA9511
:10055000A32F922F812F8487D7011296ED91FC91C2
:1005600013970587ED91FC91119712966D917C91EF
:1005700013970280F381E02DC701099581E01F9157
:100580000F91FF90EF900895EF92FF920F93CF930A
:10059000DF937C01EB01DC0113967C936E93129741
:1005A0008B81082F01500B3000F58750823078F492
:1005B0008E816F810E94F9149C01D701ED91FC910D
:1005C0000480F581E02DC7016A81402F0995043030
:1005D00061F4D701ED91FC910680F781E02DC70110
:1005E0006A814E812F81088509958B81882349F482
:1005F000D701ED91FC910084F185E02DC7016A815E
:10060000099581E0DF91CF910F91FF90EF900895D0
:10061000AF92BF92CF92DF92EF92FF920F931F9310
:100620006C015B01FC01E480F580FB01218130E07D
:1006300040E050E060E070E080E090E008E00E9480
:100640007901FC01C70189019A01AB01BF010E9438
:100650000406F60184819581B5014EE020E00E94F8
:100660007C081F910F91FF90EF90DF90CF90BF908B
:10067000AF900895DF92EF92FF920F931F93CF9365
:10068000DF93EC018C819D810E94C60765E070E0DC
:1006900080E090E00E94C6158C819D810E94CA0571
:1006A0008823C9F08EE0E82EF12CEC0EFD1EDC2E26
:1006B0000D2F8C819D81B7014EE00E947107182F8C
:1006C0008C819D810E9491048D2D902FB7010E94F5
:1006D000C402112371F3DF91CF911F910F91FF900D
:1006E000EF90DF9008959F92AF92BF92CF92DF92EA
:1006F000EF92FF920F931F938C01C62E942E0E94AF
:10070000030287EB91E0F80191838083DC2CDD0C00
:10071000DD08C682D782D086D186D286D386D4869B
:10072000D58626EFA22E22E0B22EC50160E071E050
:100730000E94E61480E190E00E941015F82EE92E48
:1007400069E04AE00E94FB03F801F482E5828F2D04
:100750009E2D0E940008F801848195816FE04FE092
:100760000E945205F80184819581692D0E94CF0570
:10077000F801848195810E949104F801848195811A
:1007800062E070E00E949B06F8018481958163E03D
:1007900070E00E94CC06F801848195816EE00E9491
:1007A0000E04F8018481958161E00E945C05F801E6
:1007B000848195810E94B307F8018481958161E06D
:1007C00076010D2D1D2D2D2D3D2D4D2D5D2D0E94C4
:1007D000F206C5016C2D0E948613C501692D0E9489
:1007E00086131F910F91FF90EF90DF90CF90BF90F5
:1007F000AF909F900895FC016083418381E08283E4
:10080000138280E2848315821682108611861286F6
:10081000138614861586168617860895FC016132A4
:1008200008F060E264830895FF920F931F938C0198
:10083000F62E81E00E942A0C80E00E94330C80E0BA
:100840000E94380CF80181816F2D0E948F161F9134
:100850000F91FF9008951F93CF93DF93EC0160E019
:1008600070E00E94140480E68EBD0DB407FEFDCF3B
:100870008EB58FEF8EBD0DB407FEFDCF1EB5CE0138
:1008800061E070E00E941404812FDF91CF911F91ED
:1008900008951F93CF93DF93EC0160E070E00E9416
:1008A00014048FEF8EBD0DB407FEFDCF1EB5CE0133
:1008B00061E070E00E941404812FDF91CF911F91BD
:1008C00008951F93CF93DF93EC0160E070E00E94E6
:1008D000140481EE8EBD0DB407FEFDCF1EB5CE0112
:1008E00061E070E00E941404812FDF91CF911F918D
:1008F00008951F93CF93DF93EC0160E070E00E94B6
:10090000140482EE8EBD0DB407FEFDCF1EB5CE01E0
:1009100061E070E00E941404812FDF91CF911F915C
:1009200008950F931F938C01FC01808160E00E9469
:100930008F16C8010E946104C8010E9479041F91AA
:100940000F910895EF92FF920F931F93CF93DF9330
:10095000EC01F62EE72E9C81142F941708F4192F22
:100960008E81882311F000E002C0092F011BCE0107
:1009700060E070E00E94140481E68EBD0DB407FEB5
:10098000FDCF8F2D9E2D9C01F901FEB49FEF07C076
:100990009EBD0DB407FEFDCF8EB58193115011237E
:1009A000B9F707C08EBD0DB407FEFDCF9EB501504F
:1009B00001C08FEF0023B1F7CE0161E070E00E942B
:1009C00014048F2DDF91CF911F910F91FF90EF9025
:1009D0000895DF92EF92FF920F931F93CF93DF93CF
:1009E000EC01E62ED72EF22E9C81142F941708F4DA
:1009F000192F8E81882311F000E002C0092F011BFE
:100A0000CE0160E070E00E941404FEBC0DB407FE4D
:100A1000FDCF8E2D9D2D9C01F901FEB408C0808173
:100A20008EBD0DB407FEFDCF31968EB5115011234A
:100A3000B1F706C01EBC0DB407FEFDCF8EB5015048
:100A40000023C1F7CE0161E070E00E9414048F2DF5
:100A5000DF91CF911F910F91FF90EF90DF9008955C
:100A60000F931F93CF93DF93EC01162F042F60E0B9
:100A700070E00E9414041F7110621EBD0DB407FEC9
:100A8000FDCF1EB50EBD0DB407FEFDCF8EB5CE0158
:100A900061E070E00E941404812FDF91CF911F91DB
:100AA0000F910895262F4F702295207F242B64E00C
:100AB000422F0E9430050895662319F061E04FE34C
:100AC00002C061E040E00E9430050895CF92DF92BD
:100AD000EF92FF920F931F938B017A01690167E0F8
:100AE00040E70E94300590E09C01E5E036952795AF
:100AF000EA95E1F72170F801208374E096958795D7
:100B00007A95E1F7282F2170F70120839695879534
:100B1000969587958170F60180831F910F91FF90C4
:100B2000EF90DF90CF900895DF92EF92FF920F93B6
:100B30001F93CF93DF938C017B010E944904C82F40
:100B4000D0E0CE01A6E096958795AA95E1F7DD2441
:100B5000D394D82280FF15C0E114F10431F0CE0106
:100B6000959587958770F7018083C80167E040E419
:100B70000E943005C5FF05C0C80167E040E20E9441
:100B800030058D2DDF91CF911F910F91FF90EF9048
:100B9000DF90089560E070E00E9494050895462F6C
:100BA000603808F04FE765E00E9430050895EF9245
:100BB000FF920F931F93CF93DF937C01162FEA01CF
:100BC000022F60E070E00E9414041F7110621EBDCD
:100BD0000DB407FEFDCF1EB508C088818EBD0DB4D3
:100BE00007FEFDCF21968EB501500023B1F7C70156
:100BF00061E070E00E941404812FDF91CF911F917A
:100C00000F91FF90EF900895EF92FF920F931F9333
:100C1000DF93CF93CDB7DEB728970FB6F894DEBF3A
:100C20000FBECDBF7C0109831A832B833C834D8388
:100C30005E836F8378878E010F5F1F4F6AE0A80184
:100C400025E00E94D705C70160E1A80125E00E94C8
:100C5000D705F7014481413208F040E2C70161E164
:100C60000E94300528960FB6F894DEBF0FBECDBFA8
:100C7000CF91DF911F910F91FF90EF9008951F93F7
:100C8000CF93DF93EC01162F60E070E00E94140414
:100C90001F711EBD0DB407FEFDCF8EB58FEF8EBD4B
:100CA0000DB407FEFDCF1EB5CE0161E070E00E94DD
:100CB0001404812FDF91CF911F91089564E00E9469
:100CC0003F0608950E945E06282F30E02F70307096
:100CD0004AEF50E0B901649F9001659F300D749F09
:100CE000300D112482958F7090E00196A901489FE4
:100CF0009001499F300D589F300D1124C90108956E
:100D00000F931F93CF93DF938C01EB0160E00E9460
:100D10003F06482F437F209729F0219711F4486020
:100D200001C04C60C80160E00E943005DF91CF91A6
:100D30001F910F910895FF920F931F93CF93DF930D
:100D4000EC018B0166E00E943F061A82B7EDFB2E94
:100D5000F8220230110511F480E206C001301105BD
:100D600029F481E08A8388E0F82A01C01A82CE0142
:100D700066E04F2D0E943005CE0166E00E943F06DE
:100D80008F1511F481E002C01A8280E0DF91CF91CB
:100D90001F910F91FF9008950F931F93CF93DF93AF
:100DA0008C01EB0166E00E943F06482F497FC3306B
:100DB000D10571F0C230D10511F444600AC0C130D0
:100DC000D10511F4426005C0209719F0249709F469
:100DD0004660C80166E00E943005DF91CF911F9107
:100DE0000F910895BF92CF92DF92EF92FF920F93EF
:100DF0001F93DF93CF93CDB7DEB728970FB6F89444
:100E0000DEBF0FBECDBF6C01B62EE982FA820B8326
:100E10001C832D833E834F835887662389F4F60114
:100E2000E0868A8181878B8182878C8183878D810F
:100E300084878E8185878F8186878885878707C08D
:100E4000F6E0F61708F43DC081E0681761F4EB2D79
:100E5000F0E0E259FF4FE491C6016E2FAE014F5F03
:100E60005F4F25E00BC0E62FF0E0E259FF4FE49121
:100E7000C6016E2FAE014F5F5F4F21E00E94D70584
:100E80000B2D10E0F801EC58FF4FE491C6016E2FD6
:100E9000F60144810E943005C60162E00E943F06CF
:100EA00008591F4FF801649121E030E002C0220F81
:100EB000331F6A95E2F7482F422BC60162E00E9479
:100EC000300528960FB6F894DEBF0FBECDBFCF9188
:100ED000DF911F910F91FF90EF90DF90CF90BF9027
:100EE00008950F931F938C010E94A204C80167E12B
:100EF0000E943F0681701F910F910895EF92FF921B
:100F00000F931F93CF93DF93EC017B01042F122FDC
:100F100060E00E943F06482F4C7F4260CE0160E0B7
:100F20000E94300586E990E00E948115112311F49A
:100F300020EA01C020EBCE01B701402F0E94E90456
:100F4000888161E00E948F168AE090E00E948115FE
:100F5000888160E00E948F16DF91CF911F910F91E1
:100F6000FF90EF9008950F931F938C0160E00E9413
:100F70003F06482F4260C80160E00E94300586E9C4
:100F800090E00E9481151F910F910895CF93DF93F8
:100F9000EC0160E00E943F06482F4360CE0160E014
:100FA0000E943005CE0167E040E70E943005888549
:100FB0009985892B9A85892B9B85892B9C85892BE3
:100FC0009D85892B9E85892B9F85892B41F0AE01BC
:100FD000485F5F4FCE016AE025E00E94D705CE0151
:100FE0000E947904CE010E946104888161E00E9420
:100FF0008F1682E890E00E948115DF91CF910895CD
:10100000CF93DF93EC01888161E00E9450168981C3
:1010100061E00E9450160E94490C888160E00E94A5
:101020008F16CE0161E070E00E94140465E070E06C
:1010300080E090E00E94C615CE0164E04FE50E947A
:101040003005CE0163E070E00E94CC06CE0162E084
:1010500070E00E949B06882311F081E08B83CE0113
:1010600060E070E00E949B06CE0162E070E00E94AA
:101070008006CE016CE140E00E943005CE0167E0C1
:1010800040E70E943005CE016CE40E94CF05CE01FE
:101090000E947904CE010E946104DF91CF910895EE
:1010A000EF92FF920F931F93CF93DF937C01162F44
:1010B000EA01022F60E070E00E9414041F711EBD5F
:1010C0000DB407FEFDCF1EB59FEF07C09EBD0DB44A
:1010D00007FEFDCF8EB5899301500023B9F7C701F4
:1010E00061E070E00E941404812FDF91CF911F9185
:1010F0000F91FF90EF9008956F927F928F929F9241
:10110000AF92BF92CF92DF92EF92FF920F931F9315
:10111000DF93CF9300D00F92CDB7DEB78C010E9442
:101120007E070E945B154B015C01C8010E946206AC
:101130003E010894611C711C6C01EE24FF24C8015F
:1011400068E0A30121E00E945008807321F50E940D
:101150005B15681979098A099B096C157D058E054F
:101160009F05C8F4ECCFC8010E942B04F8018783C7
:101170008F2D0F900F900F90CF91DF911F910F91B6
:10118000FF90EF90DF90CF90BF90AF909F908F90A7
:101190007F906F90089598012B5F3F4FC801BE016B
:1011A0006E5F7F4FAE014D5F5F4F0E946605FA8014
:1011B000F80185818823E1F2D6CF382F413210F033
:1011C00040E042C08091FC018823E1F791E09093D8
:1011D000FC012093FE018FEF80936902109224029C
:1011E0004150409325024F5F9093FD018091FD0196
:1011F000330F832B8093FD018091FF01813041F4F7
:101200001092FF018091FD018093BB0085EC01C02D
:1012100085EE8093BC008091FC018130E1F38091E8
:101220002402841710F44091240220E030E00AC028
:10123000FB01E20FF31FD901AC5FBD4F8C9180839E
:101240002F5F3F4F2417A0F3842F08950F931F9310
:10125000582F122F413210F081E04AC08091FC01DA
:101260008823E1F782E08093FC010093FE018FEF79
:10127000809369021092240240932502A4E0B2E018
:10128000FB0102C081918D938E2F861B8417D0F3B2
:101290001092FD018091FD01550F852B8093FD017A
:1012A0008091FF01813041F41092FF018091FD0196
:1012B0008093BB0085EC01C085EE8093BC001123B8
:1012C00021F08091FC018230E1F3809169028F3F2F
:1012D00011F480E00DC080916902803211F482E047
:1012E00007C080916902803311F084E001C083E07F
:1012F0001F910F910895482F613210F081E00895F9
:101300008091FC01843011F082E0089560934702DF
:10131000A6E2B2E0842F9C01F90102C081918D9375
:101320008E2F841B8617D0F380E008951F920F92B2
:101330000FB60F9211242F933F934F935F936F93A8
:101340007F938F939F93AF93BF93EF93FF9380917E
:10135000B90090E0887F90708036910509F4F2C062
:1013600081369105CCF58832910509F47BC089322C
:101370009105B4F48031910509F46FC08131910574
:101380003CF4009709F447C1089709F04FC165C0C4
:101390008831910509F466C0809709F047C182C081
:1013A0008034910509F4A4C08134910544F480335C
:1013B000910509F482C0C89709F038C189C0803509
:1013C000910509F489C08835910509F496C08834DF
:1013D000910509F02BC1AEC08839910509F413C1FC
:1013E00089399105ECF48837910509F4ABC0893748
:1013F00091054CF48836910509F4A4C08037910515
:1014000009F014C19FC08838910509F4FCC08039E7
:10141000910509F49DC08038910509F007C198C075
:10142000803B910509F4C6C0813B91054CF4803A9C
:10143000910509F49FC0883A910509F0F7C0BAC038
:10144000803C910509F4E3C0883C910509F4DFC0B4
:10145000883B910509F0EAC0C2C08091FD018093EC
:10146000BB00CFC09091240280912502981768F4A8
:1014700090912402E92FF0E0EC5FFD4F8081809392
:10148000BB009F5F90932402BCC08091FE01882323
:1014900009F44BC085ED8093BC008091BC0084FDB5
:1014A000FCCFC2C080E28093690285ED8093BC00CE
:1014B0008091BC0084FDFCCFB7C080E380936902BB
:1014C00085ED8093BC008091BC0084FDFCCFACC056
:1014D00088E3809369029BC0809124029091BB00B5
:1014E000E82FF0E0EC5FFD4F90838F5F8093240244
:1014F000909124028091250282C0809124029091D3
:10150000BB00E82FF0E0EC5FFD4F90838F5F80938E
:1015100024028091FE01882341F085ED8093BC0078
:101520008091BC0084FDFCCF7FC081E08093FF01EF
:1015300084EA6EC085ED8093BC008091BC0084FD80
:10154000FCCF72C083E08093FC011092680259C006
:1015500080916802803208F056C0809168029091B4
:10156000BB00E82FF0E0E85BFD4F90838F5F809336
:10157000680247C080916802803230F4E0916802CE
:10158000F0E0E85BFD4F108285ED8093BC00809118
:10159000BC0084FDFCCF1092FC0160916802E091D8
:1015A0000202F091030288E492E070E00995109243
:1015B00068022DC084E08093FC01109246021092D4
:1015C0004702E0910002F0910102099580914702E3
:1015D000882329F481E0809347021092260290919B
:1015E0004602E92FF0E0EA5DFD4F80818093BB0069
:1015F0009F5F909346029091460280914702981710
:1016000010F485EC01C085E88093BC000FC085EC28
:101610008093BC0009C01092690285ED8093BC00E4
:101620008091BC0084FDFCCF1092FC01FF91EF91F2
:10163000BF91AF919F918F917F916F915F914F91EA
:101640003F912F910F900FBE0F901F901895109201
:10165000FC0181E08093FE011092FF0182E161E0D4
:101660000E948F1683E161E00E948F16E9EBF0E0A3
:1016700080818E7F808380818D7F808388E48093CA
:10168000B80085E48093BC00089581E08093AF02A8
:1016900060938C021092AD021092AE0208952091D8
:1016A0008B0230E080918A02281B3109C90108951C
:1016B00040918A0280918B02481718F02FEF3FEF7C
:1016C0000AC0E42FF0E0E659FD4F8081282F30E07A
:1016D0004F5F40938A02C9010895E0918A02809188
:1016E0008B02E81718F0EFEFFFEF06C0F0E0E659C5
:1016F000FD4F8081E82FF0E0CF010895089510920A
:10170000B3021092B20288EE93E0A0E0B0E08093C2
:10171000B4029093B502A093B602B093B70285ECE1
:1017200091E09093B1028093B0020895CF92DF923E
:10173000EF92FF920F931F93CF93DF937C016B0186
:101740008A018091AF028823A1F0C0E0D0E00DC0F3
:10175000D701ED91FC91D601AC0FBD1F0190F08136
:10176000E02DC7016C9109952196C017D10780F330
:1017700004C0CB01642F0E947B09C801DF91CF9187
:101780001F910F91FF90EF90DF90CF900895DF931E
:10179000CF930F92CDB7DEB7FC0169838091AF0282
:1017A0008823C9F08091AE02803238F081E090E069
:1017B0009383828320E030E015C08091AD02E82F52
:1017C000F0E0E357FD4F998190838F5F8093AD02E6
:1017D0008093AE0205C0CE01019661E00E947B09B4
:1017E00021E030E0C9010F90CF91DF9108950F9370
:1017F000062F80918C026DE872E04091AE0221E0EC
:101800000E9426091092AD021092AE021092AF0211
:101810000F91089561E00E94F70B0895413208F09E
:1018200040E2862F6AE672E00E94DD0810928A028A
:1018300080938B02089521E00E940E0C089510926F
:101840008A0210928B021092AD021092AE020E9498
:10185000270B0895882319F48CB5806202C08CB5DB
:101860008F7D8CBD08959CB5937F982B9CBD08956A
:101870002CB5382F33702C7F322B3CBD2DB590E02A
:10188000959587959595879581702E7F822B8DBD37
:1018900008958AE061E00E948F168AE061E00E946C
:1018A00050168CB580618CBD8CB580648CBD8DE08C
:1018B00061E00E9450168BE061E00E94501608958E
:1018C0000F938CEB92E060E040E020E000E00E94AB
:1018D000CD120F9108950F9382EC92E060E040E00A
:1018E00020E000E00E94CD120F9108950F9380ED4B
:1018F00092E060E040E020E000E00E94CD1288EC41
:1019000092E00E942A130F9108950F9386ED92E0C2
:1019100060E040E020E000E00E94CD120F910895C9
:101920000F938CED92E060E040E020E000E00E9448
:10193000CD120F9108950F9382EE92E060E040E0A7
:1019400020E000E00E94CD120F910895E091E8029E
:10195000F091E902A081B1812D913C91CF01F90173
:10196000099508950F938AEE92E060E040E020E050
:1019700000E00E94CD120F910895EF92FF920F9315
:101980001F9386E061E00E94501606EF12E0C80146
:1019900040E855E260E070E00E946A11C80160E131
:1019A00071E00E94E6148CE390E00E941015F82E7E
:1019B000E92E6AE244E60E94E510F092E802E09225
:1019C000E902C80163E271E00E94E6148091E80236
:1019D0009091E9020E94750F1F910F91FF90EF9077
:1019E00008950F9380EF92E060E040E020E000E097
:1019F0000E94CD120F910895CF92DF92EF92FF9245
:101A00000F931F936C0180E090E0F60126A137A1AF
:101A100040E050E0621B730B840B950B24A135A1B1
:101A200040E050E00E9419187B018C013FE01595C1
:101A30000795F794E7943A95D1F7F60166A577A54F
:101A4000882777FD8095982F2BE0660F771F881FDA
:101A5000991F2A95D1F720A931A9442737FD409530
:101A6000542F2E0D3F1D401F511F0E945A182E0D3E
:101A70003F1D401F511FF60122AB33AB44AB55ABAA
:101A8000285F3F4F4F4F5F4F84E0559547953795FF
:101A900027958A95D1F7C9011F910F91FF90EF907B
:101AA000DF90CF9008954F925F926F927F928F92C6
:101AB0009F92AF92BF92CF92DF92EF92FF920F93DD
:101AC0001F93DF93CF93CDB7DEB728970FB6F89467
:101AD000DEBF0FBECDBF4C012A013B01DC01D29617
:101AE000AD90BD90CD90DC90D59780E690EFAFEFB4
:101AF000BFEFA80EB91ECA1EDB1EC601B501A601A6
:101B000095010E9419186D837E838F839887D40175
:101B100090966D917C919197882777FD8095982F6D
:101B20000E9419187B018C01ADE015950795F7947B
:101B3000E794AA95D1F782E090E0A0E0B0E0E80E4B
:101B4000F91E0A1F1B1F6D817E818F819885FCE025
:101B50009595879577956795FA95D1F7D4019896DD
:101B60002D913C919997442737FD4095542F0E9421
:101B70001918BC01992777FD9095892FE60EF71E5D
:101B8000081F191F62E015950795F794E7946A9569
:101B9000D1F780E090E8A0E0B0E0E80EF91E0A1F5F
:101BA0001B1FD40192962D913C91939740E050E0F9
:101BB000C801B7010E941918DC01CB015FE0B6959E
:101BC000A795979587955A95D1F789839A83AB8383
:101BD000BC83D4015C96ED90FC905D970027F7FCE8
:101BE0000095102F42E0EE0CFF1C001F111F4A95BC
:101BF000D1F782E090E0A0E0B0E0E80EF91E0A1F05
:101C00001B1FD4015E966D917C915F97882777FDAD
:101C10008095982FA60195010E9419183BE0959593
:101C20008795779567953A95D1F7E60EF71E081FC9
:101C3000191FF40122A533A5442737FD4095542FE1
:101C40006D817E818F8198850E94191827E1959575
:101C50008795779567952A95D1F7E60EF71E081FA9
:101C6000191F82E015950795F794E7948A95D1F7A7
:101C70004E185F08600A710AC301B20120E533EC17
:101C800040E050E00E94191897FD0FC0660F771FC3
:101C9000881F991F29813A814B815C810E943818E5
:101CA000C901DA015C016D010CC029813A814B81C7
:101CB0005C810E94381859016A01AA0CBB1CCC1C1B
:101CC000DD1C5527D7FC5A954D2D3C2D2B2DCA01D7
:101CD000B9010E9419182EED3BE040E050E00E944F
:101CE00019187B018C01C601B50123E433EE4FEFD7
:101CF0005FEF0E9419189C01552737FD5095452F1D
:101D00002153314F4F4F5F4F78011127F7FC10954A
:101D1000012F2E0D3F1D401F511F64E05595479523
:101D2000379527956A95D1F72A0D3B1D4C1D5D1DF2
:101D3000B901CA0128960FB6F894DEBF0FBECDBF19
:101D4000CF91DF911F910F91FF90EF90DF90CF9097
:101D5000BF90AF909F908F907F906F905F904F90CB
:101D60000895AF92BF92CF92DF92EF92FF920F93BE
:101D70001F9380EB92E067E770E00E94450B80EBD9
:101D800092E064EF0E94C70B80EB92E064E30E9454
:101D9000C70B80EB92E00E940A0C65E070E080E0E7
:101DA00090E00E94C61580EB92E067E770E00E9429
:101DB000450B80EB92E066EF0E94C70B80EB92E050
:101DC0000E940A0C80EB92E067E770E043E050E08D
:101DD0000E941B0C80EB92E00E944F0B0397D4F300
:101DE00080EB92E00E94580BE82E80EB92E00E947C
:101DF000580BA82E80EB92E00E94580BFF2400E0C5
:101E000010E08701FF24EE24BB24CC24DD24DC2C4D
:101E1000CB2CBA2CAA24EA28FB280C291D29EF2C4C
:101E2000F02E012F1127B701C8011F910F91FF90CC
:101E3000EF90DF90CF90BF90AF9008951F93162F33
:101E400080EB92E067E770E00E94450B80EB92E048
:101E5000612F0E94C70B80EB92E00E940A0C80EB7E
:101E600092E067E770E042E050E00E941B0C80EBDC
:101E700092E00E944F0B0297D4F380EB92E00E9415
:101E8000580B182F80EB92E00E94580B512F40E026
:101E9000282F30E0242B352BC9011F910895EF9294
:101EA000FF920F931F937C0100EB12E0C80167E7DC
:101EB00070E00E94450BC80164EF0E94C70BC80187
:101EC0006EE20E94C70BC8010E940A0C65E070E038
:101ED00080E090E00E94C615C70166EF0E941E0FC9
:101EE0001F910F91FF90EF9008950F931F938C0116
:101EF00080EB92E00E941F0CC8016AEA0E941E0F4C
:101F0000F801958F848FC8016CEA0E941E0FF801BA
:101F1000978F868FC8016EEA0E941E0FF80191A369
:101F200080A3C80160EB0E941E0FF80193A382A357
:101F3000C80162EB0E941E0FF80195A384A3C8019B
:101F400064EB0E941E0FF80197A386A3C80166EBFD
:101F50000E941E0FF80191A780A7C80168EB0E949C
:101F60001E0FF80193A782A7C8016AEB0E941E0FFB
:101F7000F80195A784A7C8016CEB0E941E0FF80119
:101F800097A786A7C8016EEB0E941E0FF80191ABC0
:101F900080AB1F910F910895EF92FF920F931F93C3
:101FA000CF93DF93EC01162F86EF92E06DE271E0A4
:101FB0000E94E31486EF92E0612F4AE050E00E9415
:101FC0003F14113049F480E00E942E168C0186EFF8
:101FD00092E061E471E00EC0123001F5CE010E9482
:101FE0004F0FBC01CE010E94FC0C8C0186EF92E0E9
:101FF00063E571E00E94E31486EF92E0B8014AE0E5
:1020000050E00E94C414CE01B80140E050E020E04E
:1020100030E000E010E00E9409022AC0133041F5D0
:10202000CE010E944F0FBC01CE010E94FC0CCE01DC
:102030000E94B10EAB01BC01CE010E94530D7B0189
:102040008C0186EF92E06EE571E00E94E31486EF6A
:1020500092E0B801A7012AE030E00E949D14CE0171
:10206000B801A70100E010E020E030E00E945A0231
:10207000DF91CF911F910F91FF90EF900895AF9254
:10208000BF92CF92DF92EF92FF920F931F935C016A
:10209000162FD42EC22E26EFE22E22E0F22EC701FA
:1020A0006CE671E00E94E314C701612F4AE050E042
:1020B0000E942D14C70161E871E00E94E314C7017A
:1020C0006D2D4AE050E00E942D14C70165E871E0D3
:1020D0000E94E314C7016C2D4AE050E00E942D14C9
:1020E000C70169E871E00E94E314C701602F4AE06C
:1020F00050E00E942D14C7016DE871E00E94E314C6
:10210000C50160E070E040E050E020E030E000E039
:1021100010E00E9409021F910F91FF90EF90DF9055
:10212000CF90BF90AF900895EF92FF920F931F93BF
:10213000CF93DF93EC01162F042F790186EF92E005
:102140006CE671E00E94E31486EF92E0612F4AE0B2
:1021500050E00E942D1486EF92E06FE871E00E943B
:10216000E31486EF92E0602F4AE050E00E942D14C5
:1021700086EF92E066E971E00E94E31486EF92E058
:10218000B7014AE050E00E94B11486EF92E06DE89A
:1021900071E00E94E314113031F481E0E82286E01E
:1021A0006E2D0E948F16CE0160E070E040E050E09E
:1021B00020E030E000E010E00E940902DF91CF91C2
:1021C0001F910F91FF90EF9008950F931F938C0133
:1021D0000E94730385ED91E0F801918380831F9144
:1021E0000F91089508951F920F920FB60F92112428
:1021F0002F933F934F938F939F93EF93FF938091F0
:10220000C00082FD19C04091C60080911403282FA0
:1022100030E02F5F3F4F2F7330708091150390E0B7
:102220002817390759F0E0911403F0E0EA50FD4F08
:1022300042A32093140302C08091C600FF91EF9146
:102240009F918F914F913F912F910F900FBE0F90C3
:102250001F901895809114032091150390E0805CE5
:102260009F4F821B91098F739070892B11F00E94F0
:10227000F21008951F920F920FB60F9211242F9310
:102280008F939F93EF93FF93909116038091170381
:10229000981731F48091C1008F7D8093C10010C0E8
:1022A000E0911703F0E0E85AFC4F2081809117037A
:1022B00090E001968F739070809317032093C6006F
:1022C000FF91EF919F918F912F910F900FBE0F90E3
:1022D0001F901895AF92BF92DF92EF92FF920F93EB
:1022E0001F93CF93DF93EC017A018B01DD24403003
:1022F00081EE580780E0680780E0780711F0DD2460
:10230000D39491E0A92EB12CE889F989DD2069F0F8
:10231000C5010C8C02C0880F991F0A94E2F78083D4
:1023200060E079E08DE390E005C0108260E874E839
:102330008EE190E0A80197010E94381821503040AA
:1023400040405040569547953795279580E120307D
:10235000380720F0DD2011F0DD24D6CFEC85FD8597
:102360003083EE85FF8520831D8EEA89FB894081BD
:1023700021E030E0C901088C02C0880F991F0A943F
:10238000E2F7482B4083EA89FB894081C901098C27
:1023900002C0880F991F0A94E2F7482B4083EA890C
:1023A000FB894081C9010A8C02C0880F991F0A94D9
:1023B000E2F7482B4083EA89FB8980810B8C02C0BD
:1023C000220F331F0A94E2F7209528232083DF9100
:1023D000CF911F910F91FF90EF90DF90BF90AF9042
:1023E0000895FC01268D878D30E0205C3F4F281B2F
:1023F00031092F733070C9010895FC01968D878DC6
:10240000981719F42FEF3FEF06C0878DE80FF11DE5
:1024100082A1282F30E0C9010895DC015E969C91CD
:102420005E975F968C915F97981719F42FEF3FEFA7
:1024300010C05F968C915F97FD01E80FF11D92A18E
:102440005F968C915F978F5F8F735F968C93292F28
:1024500030E0C9010895DC015D968C915D97882379
:1024600039F05096ED91FC915197808186FFF9CF1C
:102470005D961C920895DC0190968C919097282F80
:1024800030E02F5F3F4F2F73307091968C91919772
:1024900090E028173907C9F390968C919097FD0129
:1024A000E80FF11DEE59FF4F608390962C939097A3
:1024B0005296ED91FC915397208181E090E05B96DC
:1024C0000C905B9702C0880F991F0A94E2F7282BA3
:1024D000208381E05D968C935D975096ED91FC9101
:1024E000519780818064808381E090E0089510920C
:1024F000F9021092F80288EE93E0A0E0B0E0809339
:10250000FA029093FB02A093FC02B093FD0283EECB
:1025100091E09093F7028093F60210921703809156
:10252000170380931603109215038091150380936F
:10253000140385EC90E0909303038093020384ECF2
:1025400090E0909305038093040380EC90E09093D7
:1025500007038093060381EC90E090930903809336
:10256000080382EC90E090930B0380930A0386ECBF
:1025700090E090930D0380930C0384E080930E030E
:1025800083E080930F0387E08093100385E08093BE
:10259000110381E08093120308950F93FC0183EFF0
:1025A00091E09183808362834383248305830F9129
:1025B000089583EF91E0909399038093980310928C
:1025C0009A0310929B0310929C0310929D0308950E
:1025D0008F929F92AF92BF92CF92DF92EF92FF9233
:1025E0000F931F93CF93DF934C016B017C01AA24BF
:1025F000BB24C0E0D0E0C601F70162814AE050E0B0
:102600000E942D148C01C6016EE20E945E13080F19
:10261000191FA00EB11E21960894E11CF11CC330B5
:10262000D10549F7C601F40165814AE050E00E94F6
:102630002D149501280F391FC901DF91CF911F91EA
:102640000F91FF90EF90DF90CF90BF90AF909F9051
:102650008F900895FC0183EF91E091838083128233
:102660001382148215820895CF92DF92EF92FF9227
:102670000F931F93CF93DF937C016B018A01C0E01E
:10268000D0E00FC0D6016D916D01D701ED91FC91A5
:102690000190F081E02DC7010995C80FD91F0150A5
:1026A00010400115110571F7CE01DF91CF911F91F7
:1026B0000F91FF90EF90DF90CF900895DC01ED91A6
:1026C000FC910190F081E02D09950895EF92FF9221
:1026D0000F931F938C01DC01ED91FC910190F0812F
:1026E000E02D6DE009957C01D801ED91FC91019000
:1026F000F081E02DC8016AE009959C012E0D3F1D77
:10270000C9011F910F91FF90EF900895EF92FF92F2
:102710000F931F937C01DC01ED91FC910190F081FE
:10272000E02D09958C01C7010E946613080F191F3F
:10273000C8011F910F91FF90EF900895CF93DF9301
:10274000EC016115710519F420E030E00FC0DB01E8
:102750000D900020E9F71197A61BB70BE881F981CE
:102760000280F381E02DAD0109959C01C901DF9143
:10277000CF9108954F925F927F928F929F92AF92E6
:10278000BF92CF92DF92EF92FF920F931F93DF934E
:10279000CF93CDB7DEB7A1970FB6F894DEBF0FBECB
:1027A000CDBF2C01742ECB01223008F42AE019A2EF
:1027B00031E2C32ED12CCC0EDD1E822E9924AA2408
:1027C000BB24672D752FA50194010E94381879014B
:1027D0008A01C801B701A50194010E941918472D6B
:1027E000461B0894C108D1084A3014F4405D01C06A
:1027F000495CF6014083E114F1040105110521F063
:102800007E2C5F2DC801DDCFC201B6010E949E1350
:10281000A1960FB6F894DEBF0FBECDBFCF91DF916A
:102820001F910F91FF90EF90DF90CF90BF90AF90EE
:102830009F908F907F905F904F900895DC012115BD
:10284000310541F4ED91FC910190F081E02D642F70
:10285000099508950E94BA130895EF92FF920F937D
:102860001F939A01E62EFF2400E010E0B801A701B3
:102870000E941E141F910F91FF90EF900895CF9228
:10288000DF92EF92FF920F931F936C01E62E9A0155
:10289000FF2400E010E0B801A7010E941E148C0183
:1028A000C6010E946613080F191FC8011F910F91DE
:1028B000FF90EF90DF90CF900895CF92DF92EF924C
:1028C000FF920F931F93CF93DF93EC016A017B017B
:1028D0002115310541F4E881F9810190F081E02D65
:1028E000642F09951FC02A303105D1F477FF17C036
:1028F000E881F9810190F081E02D6DE209958C016C
:1029000044275527BA014C195D096E097F09CE018C
:102910002AE00E94BA139801280F391F04C02AE048
:102920000E94BA139C01C901DF91CF911F910F91B1
:10293000FF90EF90DF90CF900895EF92FF920F936A
:102940001F937C010E945D148C01C7010E946613D5
:102950009C01200F311FC9011F910F91FF90EF9033
:102960000895EF92FF920F931F937B019A01002726
:10297000F7FC0095102FB801A7010E945D141F916C
:102980000F91FF90EF900895CF92DF92EF92FF9218
:102990000F931F936C017B019A010027F7FC0095B0
:1029A000102FB801A7010E945D148C01C6010E947E
:1029B0006613080F191FC8011F910F91FF90EF9028
:1029C000DF90CF9008950E949E130895EF92FF929A
:1029D0000F931F937C010E949E138C01C7010E94DC
:1029E0006613080F191FC8011F910F91FF90EF90F8
:1029F000089570E0382F20E0622B732BCB010895EF
:102A0000CF93DF930E948B150E94BD0CCAE2D1E1E7
:102A10000E94A60C2097E1F30E942A11F9CF089595
:102A20000E94E31608951F920F920FB60F92112481
:102A30002F933F938F939F93AF93BF938091A20364
:102A40009091A303A091A403B091A5033091A60394
:102A50000196A11DB11D232F2D5F2D3720F02D577D
:102A60000196A11DB11D2093A6038093A20390930C
:102A7000A303A093A403B093A50380919E03909118
:102A80009F03A091A003B091A1030196A11DB11DC8
:102A900080939E0390939F03A093A003B093A10300
:102AA000BF91AF919F918F913F912F910F900FBE4A
:102AB0000F901F9018959FB7F89420919E03309126
:102AC0009F034091A0035091A10386B5A89B06C027
:102AD0008F3F21F02F5F3F4F4F4F5F4F9FBF542FCE
:102AE000432F322F2227280F311D411D511D82E017
:102AF000220F331F441F551F8A95D1F7B901CA0110
:102B00000895019739F0880F991F880F991F029730
:102B10000197F1F70895789484B5826084BD84B5F7
:102B2000816084BD85B5826085BD85B5816085BDC8
:102B3000EEE6F0E0808181608083E1E8F0E01082E1
:102B4000808182608083808181608083E0E8F0E022
:102B5000808181608083E1EBF0E08081846080830C
:102B6000E0EBF0E0808181608083EAE7F0E0808143
:102B700084608083808182608083808181608083A3
:102B80008081806880831092C1000895EF92FF9247
:102B90000F931F93CF93DF937B018C013FB7F89482
:102BA00080919E0390919F03A091A003B091A103F7
:102BB00026B5A89B05C02F3F19F00196A11DB11D98
:102BC0003FBFBA2FA92F982F8827820F911DA11DD3
:102BD000B11D52E0880F991FAA1FBB1F5A95D1F74C
:102BE000EC0130C00E9418183FB7F89480919E0302
:102BF00090919F03A091A003B091A10326B5A89B3B
:102C000005C02F3F19F00196A11DB11D3FBFBA2F7E
:102C1000A92F982F8827820F911DA11DB11D32E089
:102C2000880F991FAA1FBB1F3A95D1F78C1B9D0BCC
:102C3000885E9340B8F20894E108F108010911098F
:102C4000C851DC4FE114F1040105110559F6DF917B
:102C5000CF911F910F91FF90EF900895982F8E3094
:102C600008F09E50977080919E018295880F880F82
:102C7000807C892B80937C0080917A008064809393
:102C80007A0080917A0086FDFCCF209178004091F7
:102C90007900942F80E030E0282B392BC90108956A
:102CA000CF93DF93482F50E0CA01835A9D4FFC0118
:102CB0003491475B5D4FFA018491882369F190E07C
:102CC000880F991FFC01E55DFD4FA591B491FC01B2
:102CD000EB5CFD4FC591D491662351F42FB7F89466
:102CE0008C91932F909589238C93888189230BC095
:102CF000623061F42FB7F8948C91932F90958923CB
:102D00008C938881832B88832FBF06C09FB7F8944C
:102D10008C91832B8C939FBFDF91CF910895482F87
:102D200050E0CA018F589D4FFC012491CA01835A7B
:102D30009D4FFC019491475B5D4FFA013491332321
:102D400009F440C0222351F1233071F0243028F4DB
:102D50002130A1F0223011F514C02630B1F0273017
:102D6000C1F02430D9F404C0809180008F7703C073
:102D7000809180008F7D8093800010C084B58F7714
:102D800002C084B58F7D84BD09C08091B0008F776B
:102D900003C08091B0008F7D8093B000E32FF0E0FE
:102DA000EE0FFF1FEB5CFD4FA591B4912FB7F89488
:102DB000662321F48C919095892302C08C91892BF4
:102DC0008C932FBF08950F931F93CF93DF93BC0174
:102DD0008230910510F462E070E0E091A903F09177
:102DE000AA03A0E0B0E040E050E024C080819181DF
:102DF00086179707D0F08617970771F48281938121
:102E0000109729F013969C938E9312972CC0909351
:102E1000AA038093A90327C04115510519F084170F
:102E2000950718F4EF018D01AC01DF0182819381D8
:102E30009C01F9013097D1F641155105F9F0CA010D
:102E4000861B970B8430910580F48A819B81011544
:102E5000110521F0F8019383828304C09093AA03A3
:102E60008093A903FE01329645C0FE01E80FF91FC9
:102E7000619371930297998388833CC08091A703E3
:102E80009091A803892B41F48091A1019091A20116
:102E90009093A8038093A7034091A3015091A401AC
:102EA0004115510541F44DB75EB780919F01909156
:102EB000A001481B590B2091A7033091A8032417A8
:102EC0003507B0F4CA01821B930B8617970780F071
:102ED000AB014E5F5F4F8417950750F0420F531FB1
:102EE0005093A8034093A703F9016193719302C023
:102EF000E0E0F0E0CF01DF91CF911F910F910895B5
:102F0000CF93DF939C01009709F48FC0EC012297C7
:102F10001B821A826091A9037091AA036115710541
:102F200081F488819981820F931F2091A7033091AA
:102F3000A8032817390739F5D093A803C093A7032E
:102F400074C0DB0140E050E0AC17BD0708F1BB8363
:102F5000AA83FE0121913191E20FF31FAE17BF0743
:102F600079F48D919C911197280F391F2E5F3F4F57
:102F70003983288312968D919C9113979B838A8322
:102F80004115510571F4D093AA03C093A9034DC014
:102F900012968D919C911397AD01009711F0DC0171
:102FA000D3CFDA011396DC93CE931297FA012191D5
:102FB0003191E20FF31FCE17DF0769F48881998101
:102FC000280F391F2E5F3F4FFA01318320838A81FA
:102FD0009B8193838283E0E0F0E0DB0112968D9188
:102FE0009C911397009719F0BC01FD01F6CFAB013E
:102FF0004E5F5F4FDB018D919C91840F951F209157
:10300000A7033091A8032817390779F4309729F4DA
:103010001092AA031092A90302C013821282425096
:1030200050405093A8034093A703DF91CF91089598
:103030000895629FD001739FF001829FE00DF11D02
:10304000649FE00DF11D929FF00D839FF00D749F22
:10305000F00D659FF00D9927729FB00DE11DF91FCE
:10306000639FB00DE11DF91FBD01CF01112408952B
:10307000A1E21A2EAA1BBB1BFD010DC0AA1FBB1F7C
:10308000EE1FFF1FA217B307E407F50720F0A21BEE
:10309000B30BE40BF50B661F771F881F991F1A945B
:1030A00069F760957095809590959B01AC01BD0185
:1030B000CF01089597FB092E05260ED057FD04D0A9
:1030C000D7DF0AD0001C38F45095409530952195F3
:1030D0003F4F4F4F5F4F0895F6F79095809570954D
:1030E00061957F4F8F4F9F4F0895EE0FFF1F059003
:0A30F000F491E02D0994F894FFCF4D
:1030FA005573696E67205246323420496D706C00F0
:10310A005374617274206E6577204672616D776FB1
:10311A00726B00696E697420646F6E65004765742E
:10312A00204765742056616C756520706F72743A19
:10313A000052657120416E616C6F672E2056616C7A
:10314A007565005265712E2054656D703A0052659E
:10315A00712E20507265737572653A004765742046
:10316A005365742053776974636820706F72743A78
:10317A000020723A0020673A0020623A000A0020D2
:10318A00747970653A002076616C75653A00018041
:10319A0000AB030000000000000F150F150F150FFC
:1031AA00150F15000000003A0308030F150F150F3D
:1031BA001500000000C70B960B4F0B580B6D0B7ECA
:1031CA000B000000003A03080394103F10CC0F00D4
:1031DA000000003B123413F1110D12FD112B1200E5
:0631EA00000000E81200E5
:00000001FF
